{
  "contractName": "CompartirObjecto",
  "abi": [
    {
      "inputs": [
        {
          "internalType": "string",
          "name": "",
          "type": "string"
        },
        {
          "internalType": "string",
          "name": "",
          "type": "string"
        },
        {
          "internalType": "uint256",
          "name": "",
          "type": "uint256"
        }
      ],
      "name": "mapArchivos",
      "outputs": [
        {
          "internalType": "string",
          "name": "",
          "type": "string"
        }
      ],
      "stateMutability": "view",
      "type": "function",
      "constant": true
    },
    {
      "inputs": [
        {
          "internalType": "string",
          "name": "idUsuario",
          "type": "string"
        },
        {
          "internalType": "string",
          "name": "_cid",
          "type": "string"
        }
      ],
      "name": "get",
      "outputs": [
        {
          "internalType": "string[]",
          "name": "",
          "type": "string[]"
        }
      ],
      "stateMutability": "view",
      "type": "function",
      "constant": true
    },
    {
      "inputs": [
        {
          "internalType": "string",
          "name": "idPropietario",
          "type": "string"
        },
        {
          "internalType": "string",
          "name": "_cid",
          "type": "string"
        },
        {
          "internalType": "string",
          "name": "idPersonaNueva",
          "type": "string"
        }
      ],
      "name": "set",
      "outputs": [],
      "stateMutability": "nonpayable",
      "type": "function"
    },
    {
      "inputs": [
        {
          "internalType": "string",
          "name": "idPropietario",
          "type": "string"
        },
        {
          "internalType": "string",
          "name": "_cid",
          "type": "string"
        },
        {
          "internalType": "string",
          "name": "idConsultor",
          "type": "string"
        }
      ],
      "name": "getTienePermiso",
      "outputs": [
        {
          "internalType": "bool",
          "name": "",
          "type": "bool"
        }
      ],
      "stateMutability": "view",
      "type": "function",
      "constant": true
    },
    {
      "inputs": [
        {
          "internalType": "string",
          "name": "idPropietario",
          "type": "string"
        },
        {
          "internalType": "string",
          "name": "_cid",
          "type": "string"
        },
        {
          "internalType": "string",
          "name": "idConsultor",
          "type": "string"
        }
      ],
      "name": "eliminarAcceso",
      "outputs": [
        {
          "internalType": "bool",
          "name": "",
          "type": "bool"
        }
      ],
      "stateMutability": "nonpayable",
      "type": "function"
    }
  ],
  "bytecode": "0x608060405234801561001057600080fd5b50611333806100206000396000f3fe608060405234801561001057600080fd5b50600436106100575760003560e01c806306720d9f1461005c5780633e10510b1461008c5780635f37cec7146100bc578063aa67d3a5146100ec578063da465d741461011c575b600080fd5b61007660048036038101906100719190610967565b610138565b6040516100839190610a71565b60405180910390f35b6100a660048036038101906100a19190610a93565b61022a565b6040516100b39190610c17565b60405180910390f35b6100d660048036038101906100d19190610c39565b6103a4565b6040516100e39190610cfb565b60405180910390f35b61010660048036038101906101019190610c39565b610541565b6040516101139190610cfb565b60405180910390f35b61013660048036038101906101319190610c39565b610708565b005b60008380516020810182018051848252602083016020850120818352809550505050505082805160208101820180518482526020830160208501208183528095505050505050818154811061018c57600080fd5b90600052602060002001600092509250505080546101a990610d45565b80601f01602080910402602001604051908101604052809291908181526020018280546101d590610d45565b80156102225780601f106101f757610100808354040283529160200191610222565b820191906000526020600020905b81548152906001019060200180831161020557829003601f168201915b505050505081565b60606000808460405161023d9190610db2565b9081526020016040518091039020836040516102599190610db2565b9081526020016040518091039020805480602002602001604051908101604052809291908181526020016000905b828210156103335783829060005260206000200180546102a690610d45565b80601f01602080910402602001604051908101604052809291908181526020018280546102d290610d45565b801561031f5780601f106102f45761010080835404028352916020019161031f565b820191906000526020600020905b81548152906001019060200180831161030257829003601f168201915b505050505081526020019060010190610287565b505050509050600081510361039957600067ffffffffffffffff81111561035d5761035c610806565b5b60405190808252806020026020018201604052801561039057816020015b606081526020019060019003908161037b5790505b5091505061039e565b809150505b92915050565b6000806000856040516103b79190610db2565b9081526020016040518091039020846040516103d39190610db2565b9081526020016040518091039020905060008180549050036103f957600091505061053a565b60005b818054905081101561053357836040516020016104199190610db2565b6040516020818303038152906040528051906020012082828154811061044257610441610dc9565b5b9060005260206000200160405160200161045c9190610e90565b604051602081830303815290604052805190602001200361052057600182805490506104889190610ed6565b81146104e65781600183805490506104a09190610ed6565b815481106104b1576104b0610dc9565b5b906000526020600020018282815481106104ce576104cd610dc9565b5b9060005260206000200190816104e491906110cc565b505b818054806104f7576104f66111b4565b5b600190038181906000526020600020016000610513919061077a565b905560019250505061053a565b808061052b906111e3565b9150506103fc565b5060009150505b9392505050565b6000806000856040516105549190610db2565b9081526020016040518091039020846040516105709190610db2565b9081526020016040518091039020805480602002602001604051908101604052809291908181526020016000905b8282101561064a5783829060005260206000200180546105bd90610d45565b80601f01602080910402602001604051908101604052809291908181526020018280546105e990610d45565b80156106365780601f1061060b57610100808354040283529160200191610636565b820191906000526020600020905b81548152906001019060200180831161061957829003601f168201915b50505050508152602001906001019061059e565b5050505090506000815103610663576000915050610701565b60005b81518110156106fa57836040516020016106809190610db2565b604051602081830303815290604052805190602001208282815181106106a9576106a8610dc9565b5b60200260200101516040516020016106c19190610db2565b60405160208183030381529060405280519060200120036106e757600192505050610701565b80806106f2906111e3565b915050610666565b5060009150505b9392505050565b6000836040516107189190610db2565b9081526020016040518091039020826040516107349190610db2565b908152602001604051809103902081908060018154018082558091505060019003906000526020600020016000909190919091509081610774919061122b565b50505050565b50805461078690610d45565b6000825580601f1061079857506107b7565b601f0160209004906000526020600020908101906107b691906107ba565b5b50565b5b808211156107d35760008160009055506001016107bb565b5090565b6000604051905090565b600080fd5b600080fd5b600080fd5b600080fd5b6000601f19601f8301169050919050565b7f4e487b7100000000000000000000000000000000000000000000000000000000600052604160045260246000fd5b61083e826107f5565b810181811067ffffffffffffffff8211171561085d5761085c610806565b5b80604052505050565b60006108706107d7565b905061087c8282610835565b919050565b600067ffffffffffffffff82111561089c5761089b610806565b5b6108a5826107f5565b9050602081019050919050565b82818337600083830152505050565b60006108d46108cf84610881565b610866565b9050828152602081018484840111156108f0576108ef6107f0565b5b6108fb8482856108b2565b509392505050565b600082601f830112610918576109176107eb565b5b81356109288482602086016108c1565b91505092915050565b6000819050919050565b61094481610931565b811461094f57600080fd5b50565b6000813590506109618161093b565b92915050565b6000806000606084860312156109805761097f6107e1565b5b600084013567ffffffffffffffff81111561099e5761099d6107e6565b5b6109aa86828701610903565b935050602084013567ffffffffffffffff8111156109cb576109ca6107e6565b5b6109d786828701610903565b92505060406109e886828701610952565b9150509250925092565b600081519050919050565b600082825260208201905092915050565b60005b83811015610a2c578082015181840152602081019050610a11565b60008484015250505050565b6000610a43826109f2565b610a4d81856109fd565b9350610a5d818560208601610a0e565b610a66816107f5565b840191505092915050565b60006020820190508181036000830152610a8b8184610a38565b905092915050565b60008060408385031215610aaa57610aa96107e1565b5b600083013567ffffffffffffffff811115610ac857610ac76107e6565b5b610ad485828601610903565b925050602083013567ffffffffffffffff811115610af557610af46107e6565b5b610b0185828601610903565b9150509250929050565b600081519050919050565b600082825260208201905092915050565b6000819050602082019050919050565b600082825260208201905092915050565b6000610b53826109f2565b610b5d8185610b37565b9350610b6d818560208601610a0e565b610b76816107f5565b840191505092915050565b6000610b8d8383610b48565b905092915050565b6000602082019050919050565b6000610bad82610b0b565b610bb78185610b16565b935083602082028501610bc985610b27565b8060005b85811015610c055784840389528151610be68582610b81565b9450610bf183610b95565b925060208a01995050600181019050610bcd565b50829750879550505050505092915050565b60006020820190508181036000830152610c318184610ba2565b905092915050565b600080600060608486031215610c5257610c516107e1565b5b600084013567ffffffffffffffff811115610c7057610c6f6107e6565b5b610c7c86828701610903565b935050602084013567ffffffffffffffff811115610c9d57610c9c6107e6565b5b610ca986828701610903565b925050604084013567ffffffffffffffff811115610cca57610cc96107e6565b5b610cd686828701610903565b9150509250925092565b60008115159050919050565b610cf581610ce0565b82525050565b6000602082019050610d106000830184610cec565b92915050565b7f4e487b7100000000000000000000000000000000000000000000000000000000600052602260045260246000fd5b60006002820490506001821680610d5d57607f821691505b602082108103610d7057610d6f610d16565b5b50919050565b600081905092915050565b6000610d8c826109f2565b610d968185610d76565b9350610da6818560208601610a0e565b80840191505092915050565b6000610dbe8284610d81565b915081905092915050565b7f4e487b7100000000000000000000000000000000000000000000000000000000600052603260045260246000fd5b60008190508160005260206000209050919050565b60008154610e1a81610d45565b610e248186610d76565b94506001821660008114610e3f5760018114610e5457610e87565b60ff1983168652811515820286019350610e87565b610e5d85610df8565b60005b83811015610e7f57815481890152600182019150602081019050610e60565b838801955050505b50505092915050565b6000610e9c8284610e0d565b915081905092915050565b7f4e487b7100000000000000000000000000000000000000000000000000000000600052601160045260246000fd5b6000610ee182610931565b9150610eec83610931565b9250828203905081811115610f0457610f03610ea7565b5b92915050565b600081549050610f1981610d45565b9050919050565b60008190508160005260206000209050919050565b60006020601f8301049050919050565b600082821b905092915050565b600060088302610f827fffffffffffffffffffffffffffffffffffffffffffffffffffffffffffffffff82610f45565b610f8c8683610f45565b95508019841693508086168417925050509392505050565b6000819050919050565b6000610fc9610fc4610fbf84610931565b610fa4565b610931565b9050919050565b6000819050919050565b610fe383610fae565b610ff7610fef82610fd0565b848454610f52565b825550505050565b600090565b61100c610fff565b611017818484610fda565b505050565b5b8181101561103b57611030600082611004565b60018101905061101d565b5050565b601f8211156110805761105181610df8565b61105a84610f35565b81016020851015611069578190505b61107d61107585610f35565b83018261101c565b50505b505050565b600082821c905092915050565b60006110a360001984600802611085565b1980831691505092915050565b60006110bc8383611092565b9150826002028217905092915050565b8181036110da5750506111b2565b6110e382610f0a565b67ffffffffffffffff8111156110fc576110fb610806565b5b6111068254610d45565b61111182828561103f565b6000601f831160018114611140576000841561112e578287015490505b61113885826110b0565b8655506111ab565b601f19841661114e87610f20565b965061115986610df8565b60005b828110156111815784890154825560018201915060018501945060208101905061115c565b8683101561119e578489015461119a601f891682611092565b8355505b6001600288020188555050505b5050505050505b565b7f4e487b7100000000000000000000000000000000000000000000000000000000600052603160045260246000fd5b60006111ee82610931565b91507fffffffffffffffffffffffffffffffffffffffffffffffffffffffffffffffff82036112205761121f610ea7565b5b600182019050919050565b611234826109f2565b67ffffffffffffffff81111561124d5761124c610806565b5b6112578254610d45565b61126282828561103f565b600060209050601f8311600181146112955760008415611283578287015190505b61128d85826110b0565b8655506112f5565b601f1984166112a386610df8565b60005b828110156112cb578489015182556001820191506020850194506020810190506112a6565b868310156112e857848901516112e4601f891682611092565b8355505b6001600288020188555050505b50505050505056fea2646970667358221220edc924cfab6c0d97363d32629c9f1168928defdf73d5adb09dbd82611f63bc3064736f6c63430008120033",
  "immutableReferences": {},
  "source": "// SPDX-License-Identifier: GPL-3.0\r\npragma solidity ^0.8.13;\r\n\r\ncontract CompartirObjecto {\r\n    // Mapping from address to uint\r\n    mapping(string => mapping(string => string[])) public mapArchivos;\r\n\r\n    function get(string memory idUsuario, string memory _cid)\r\n        public\r\n        view\r\n        returns (string[] memory)\r\n    {\r\n        // Mapping always returns a value.\r\n        // If the value was never set, it will return the default value.\r\n\r\n        string[] memory personasAutorizadas = mapArchivos[idUsuario][_cid];\r\n\r\n        if (personasAutorizadas.length == 0) {\r\n            return new string[](0);\r\n        }\r\n\r\n        return personasAutorizadas;\r\n    }\r\n\r\n    function set(\r\n        string memory idPropietario,\r\n        string memory _cid,\r\n        string memory idPersonaNueva\r\n    ) public {\r\n        // Update the value at this address\r\n        mapArchivos[idPropietario][_cid].push(idPersonaNueva);\r\n    }\r\n\r\n    function getTienePermiso(\r\n        string memory idPropietario,\r\n        string memory _cid,\r\n        string memory idConsultor\r\n    ) public view returns (bool) {\r\n        string[] memory personasAutorizadas = mapArchivos[idPropietario][_cid];\r\n\r\n        if (personasAutorizadas.length == 0) {\r\n            return false;\r\n        }\r\n\r\n        for (uint256 i = 0; i < personasAutorizadas.length; i++) {\r\n            if (\r\n                keccak256(abi.encodePacked(personasAutorizadas[i])) ==\r\n                keccak256(abi.encodePacked(idConsultor))\r\n            ) {\r\n                return true; // El CID existe en el array\r\n            }\r\n        }\r\n        return false;\r\n    }\r\n\r\n    function eliminarAcceso(\r\n        string memory idPropietario,\r\n        string memory _cid,\r\n        string memory idConsultor\r\n    ) public returns (bool) {\r\n        string[] storage personasAutorizadas = mapArchivos[idPropietario][_cid];\r\n\r\n        if (personasAutorizadas.length == 0) {\r\n            return false;\r\n        }\r\n\r\n        for (uint256 i = 0; i < personasAutorizadas.length; i++) {\r\n            if (\r\n                keccak256(abi.encodePacked(personasAutorizadas[i])) ==\r\n                keccak256(abi.encodePacked(idConsultor))\r\n            ) {\r\n                if (i != personasAutorizadas.length - 1) {\r\n                    personasAutorizadas[i] = personasAutorizadas[\r\n                        personasAutorizadas.length - 1\r\n                    ];\r\n                }\r\n                personasAutorizadas.pop();\r\n                return true;\r\n            }\r\n        }\r\n        return false;\r\n    }\r\n}\r\n",
  "sourcePath": "E:\\Desarrollo\\Node\\StorageSyncVault\\Solidity\\ContratoCompartir\\contracts\\CompartirObjecto.sol",
  "compiler": {
    "name": "solc",
    "version": "0.8.18+commit.87f61d96.Emscripten.clang"
  },
  "schemaVersion": "3.4.16",
  "updatedAt": "2023-12-05T09:12:55.553Z",
  "networkType": "ethereum",
  "devdoc": {
    "kind": "dev",
    "methods": {},
    "version": 1
  },
  "userdoc": {
    "kind": "user",
    "methods": {},
    "version": 1
  }
}