{
  "contractName": "PertenenciaArchivo",
  "abi": [
    {
      "inputs": [
        {
          "internalType": "string",
          "name": "",
          "type": "string"
        },
        {
          "internalType": "uint256",
          "name": "",
          "type": "uint256"
        }
      ],
      "name": "mapArchivos",
      "outputs": [
        {
          "internalType": "string",
          "name": "",
          "type": "string"
        }
      ],
      "stateMutability": "view",
      "type": "function",
      "constant": true
    },
    {
      "inputs": [
        {
          "internalType": "string",
          "name": "idUsuario",
          "type": "string"
        }
      ],
      "name": "get",
      "outputs": [
        {
          "internalType": "string[]",
          "name": "",
          "type": "string[]"
        }
      ],
      "stateMutability": "view",
      "type": "function",
      "constant": true
    },
    {
      "inputs": [
        {
          "internalType": "string",
          "name": "idUsuario",
          "type": "string"
        },
        {
          "internalType": "string",
          "name": "_cid",
          "type": "string"
        }
      ],
      "name": "set",
      "outputs": [],
      "stateMutability": "nonpayable",
      "type": "function"
    },
    {
      "inputs": [
        {
          "internalType": "string",
          "name": "idUsuario",
          "type": "string"
        },
        {
          "internalType": "string",
          "name": "_cid",
          "type": "string"
        }
      ],
      "name": "getCID",
      "outputs": [
        {
          "internalType": "bool",
          "name": "",
          "type": "bool"
        }
      ],
      "stateMutability": "view",
      "type": "function",
      "constant": true
    }
  ],
  "bytecode": "0x608060405234801561001057600080fd5b50610de7806100206000396000f3fe608060405234801561001057600080fd5b506004361061004c5760003560e01c80630293f44b146100515780632ce3ccd814610081578063693ec85e146100b1578063e942b516146100e1575b600080fd5b61006b60048036038101906100669190610682565b6100fd565b6040516100789190610715565b60405180910390f35b61009b60048036038101906100969190610766565b6102a7565b6040516100a89190610841565b60405180910390f35b6100cb60048036038101906100c69190610863565b610376565b6040516100d891906109b8565b60405180910390f35b6100fb60048036038101906100f69190610682565b6104d3565b005b6000806000846040516101109190610a16565b9081526020016040518091039020805480602002602001604051908101604052809291908181526020016000905b828210156101ea57838290600052602060002001805461015d90610a5c565b80601f016020809104026020016040519081016040528092919081815260200182805461018990610a5c565b80156101d65780601f106101ab576101008083540402835291602001916101d6565b820191906000526020600020905b8154815290600101906020018083116101b957829003601f168201915b50505050508152602001906001019061013e565b50505050905060008151036102035760009150506102a1565b60005b815181101561029a57836040516020016102209190610a16565b6040516020818303038152906040528051906020012082828151811061024957610248610a8d565b5b60200260200101516040516020016102619190610a16565b6040516020818303038152906040528051906020012003610287576001925050506102a1565b808061029290610aeb565b915050610206565b5060009150505b92915050565b60008280516020810182018051848252602083016020850120818352809550505050505081815481106102d957600080fd5b906000526020600020016000915091505080546102f590610a5c565b80601f016020809104026020016040519081016040528092919081815260200182805461032190610a5c565b801561036e5780601f106103435761010080835404028352916020019161036e565b820191906000526020600020905b81548152906001019060200180831161035157829003601f168201915b505050505081565b6060600080836040516103899190610a16565b9081526020016040518091039020805480602002602001604051908101604052809291908181526020016000905b828210156104635783829060005260206000200180546103d690610a5c565b80601f016020809104026020016040519081016040528092919081815260200182805461040290610a5c565b801561044f5780601f106104245761010080835404028352916020019161044f565b820191906000526020600020905b81548152906001019060200180831161043257829003601f168201915b5050505050815260200190600101906103b7565b50505050905060008151036104c957600067ffffffffffffffff81111561048d5761048c610557565b5b6040519080825280602002602001820160405280156104c057816020015b60608152602001906001900390816104ab5790505b509150506104ce565b809150505b919050565b6000826040516104e39190610a16565b9081526020016040518091039020819080600181540180825580915050600190039060005260206000200160009091909190915090816105239190610cdf565b505050565b6000604051905090565b600080fd5b600080fd5b600080fd5b600080fd5b6000601f19601f8301169050919050565b7f4e487b7100000000000000000000000000000000000000000000000000000000600052604160045260246000fd5b61058f82610546565b810181811067ffffffffffffffff821117156105ae576105ad610557565b5b80604052505050565b60006105c1610528565b90506105cd8282610586565b919050565b600067ffffffffffffffff8211156105ed576105ec610557565b5b6105f682610546565b9050602081019050919050565b82818337600083830152505050565b6000610625610620846105d2565b6105b7565b90508281526020810184848401111561064157610640610541565b5b61064c848285610603565b509392505050565b600082601f8301126106695761066861053c565b5b8135610679848260208601610612565b91505092915050565b6000806040838503121561069957610698610532565b5b600083013567ffffffffffffffff8111156106b7576106b6610537565b5b6106c385828601610654565b925050602083013567ffffffffffffffff8111156106e4576106e3610537565b5b6106f085828601610654565b9150509250929050565b60008115159050919050565b61070f816106fa565b82525050565b600060208201905061072a6000830184610706565b92915050565b6000819050919050565b61074381610730565b811461074e57600080fd5b50565b6000813590506107608161073a565b92915050565b6000806040838503121561077d5761077c610532565b5b600083013567ffffffffffffffff81111561079b5761079a610537565b5b6107a785828601610654565b92505060206107b885828601610751565b9150509250929050565b600081519050919050565b600082825260208201905092915050565b60005b838110156107fc5780820151818401526020810190506107e1565b60008484015250505050565b6000610813826107c2565b61081d81856107cd565b935061082d8185602086016107de565b61083681610546565b840191505092915050565b6000602082019050818103600083015261085b8184610808565b905092915050565b60006020828403121561087957610878610532565b5b600082013567ffffffffffffffff81111561089757610896610537565b5b6108a384828501610654565b91505092915050565b600081519050919050565b600082825260208201905092915050565b6000819050602082019050919050565b600082825260208201905092915050565b60006108f4826107c2565b6108fe81856108d8565b935061090e8185602086016107de565b61091781610546565b840191505092915050565b600061092e83836108e9565b905092915050565b6000602082019050919050565b600061094e826108ac565b61095881856108b7565b93508360208202850161096a856108c8565b8060005b858110156109a657848403895281516109878582610922565b945061099283610936565b925060208a0199505060018101905061096e565b50829750879550505050505092915050565b600060208201905081810360008301526109d28184610943565b905092915050565b600081905092915050565b60006109f0826107c2565b6109fa81856109da565b9350610a0a8185602086016107de565b80840191505092915050565b6000610a2282846109e5565b915081905092915050565b7f4e487b7100000000000000000000000000000000000000000000000000000000600052602260045260246000fd5b60006002820490506001821680610a7457607f821691505b602082108103610a8757610a86610a2d565b5b50919050565b7f4e487b7100000000000000000000000000000000000000000000000000000000600052603260045260246000fd5b7f4e487b7100000000000000000000000000000000000000000000000000000000600052601160045260246000fd5b6000610af682610730565b91507fffffffffffffffffffffffffffffffffffffffffffffffffffffffffffffffff8203610b2857610b27610abc565b5b600182019050919050565b60008190508160005260206000209050919050565b60006020601f8301049050919050565b600082821b905092915050565b600060088302610b957fffffffffffffffffffffffffffffffffffffffffffffffffffffffffffffffff82610b58565b610b9f8683610b58565b95508019841693508086168417925050509392505050565b6000819050919050565b6000610bdc610bd7610bd284610730565b610bb7565b610730565b9050919050565b6000819050919050565b610bf683610bc1565b610c0a610c0282610be3565b848454610b65565b825550505050565b600090565b610c1f610c12565b610c2a818484610bed565b505050565b5b81811015610c4e57610c43600082610c17565b600181019050610c30565b5050565b601f821115610c9357610c6481610b33565b610c6d84610b48565b81016020851015610c7c578190505b610c90610c8885610b48565b830182610c2f565b50505b505050565b600082821c905092915050565b6000610cb660001984600802610c98565b1980831691505092915050565b6000610ccf8383610ca5565b9150826002028217905092915050565b610ce8826107c2565b67ffffffffffffffff811115610d0157610d00610557565b5b610d0b8254610a5c565b610d16828285610c52565b600060209050601f831160018114610d495760008415610d37578287015190505b610d418582610cc3565b865550610da9565b601f198416610d5786610b33565b60005b82811015610d7f57848901518255600182019150602085019450602081019050610d5a565b86831015610d9c5784890151610d98601f891682610ca5565b8355505b6001600288020188555050505b50505050505056fea26469706673582212203f92cb829c1a5293721c370be7e9738f8efbaa93e90e362456d938db088a0acf64736f6c63430008120033",
  "immutableReferences": {},
  "source": "// SPDX-License-Identifier: GPL-3.0\r\npragma solidity ^0.8.13;\r\n\r\ncontract PertenenciaArchivo {\r\n    // Mapping from address to uint\r\n    mapping(string => string[]) public mapArchivos;\r\n\r\n    function get(string memory idUsuario) public view returns (string[] memory) {\r\n        // Mapping always returns a value.\r\n        // If the value was never set, it will return the default value.\r\n\r\n        string[] memory cids = mapArchivos[idUsuario];\r\n\r\n        if (cids.length == 0) {\r\n            return new string[](0);\r\n        }\r\n\r\n        return cids;\r\n    }\r\n\r\n    function set(string memory idUsuario, string memory _cid) public {\r\n        // Update the value at this address\r\n        mapArchivos[idUsuario].push(_cid);\r\n    }\r\n\r\n    function getCID(string memory idUsuario, string memory _cid)\r\n        public\r\n        view\r\n        returns (bool)\r\n    {\r\n        string[] memory cids = mapArchivos[idUsuario];\r\n\r\n        if (cids.length == 0) {\r\n            return false;\r\n        }\r\n\r\n        for (uint256 i = 0; i < cids.length; i++) {\r\n            if (\r\n                keccak256(abi.encodePacked(cids[i])) ==\r\n                keccak256(abi.encodePacked(_cid))\r\n            ) {\r\n                return true; // El CID existe en el array\r\n            }\r\n        }\r\n        return false;\r\n    }\r\n}\r\n",
  "sourcePath": "E:\\Desarrollo\\Node\\StorageSyncVault\\Solidity\\contracts\\PertenenciaArchivo.sol",
  "compiler": {
    "name": "solc",
    "version": "0.8.18+commit.87f61d96.Emscripten.clang"
  },
  "schemaVersion": "3.4.16",
  "updatedAt": "2023-11-26T01:17:28.505Z",
  "networkType": "ethereum",
  "devdoc": {
    "kind": "dev",
    "methods": {},
    "version": 1
  },
  "userdoc": {
    "kind": "user",
    "methods": {},
    "version": 1
  }
}