{
  "contractName": "PaymentContract",
  "abi": [
    {
      "inputs": [],
      "stateMutability": "nonpayable",
      "type": "constructor"
    },
    {
      "anonymous": false,
      "inputs": [
        {
          "indexed": false,
          "internalType": "address",
          "name": "from",
          "type": "address"
        },
        {
          "indexed": false,
          "internalType": "uint256",
          "name": "amount",
          "type": "uint256"
        }
      ],
      "name": "LogPaymentReceived",
      "type": "event"
    },
    {
      "inputs": [
        {
          "internalType": "address",
          "name": "",
          "type": "address"
        }
      ],
      "name": "balances",
      "outputs": [
        {
          "internalType": "uint256",
          "name": "",
          "type": "uint256"
        }
      ],
      "stateMutability": "view",
      "type": "function",
      "constant": true
    },
    {
      "inputs": [],
      "name": "owner",
      "outputs": [
        {
          "internalType": "address",
          "name": "",
          "type": "address"
        }
      ],
      "stateMutability": "view",
      "type": "function",
      "constant": true
    },
    {
      "inputs": [
        {
          "internalType": "address",
          "name": "",
          "type": "address"
        }
      ],
      "name": "paymentRecords",
      "outputs": [
        {
          "internalType": "bool",
          "name": "",
          "type": "bool"
        }
      ],
      "stateMutability": "view",
      "type": "function",
      "constant": true
    },
    {
      "inputs": [],
      "name": "regFee",
      "outputs": [
        {
          "internalType": "uint256",
          "name": "",
          "type": "uint256"
        }
      ],
      "stateMutability": "view",
      "type": "function",
      "constant": true
    },
    {
      "inputs": [],
      "name": "makePayment",
      "outputs": [],
      "stateMutability": "payable",
      "type": "function",
      "payable": true
    },
    {
      "inputs": [],
      "name": "checkBalance",
      "outputs": [
        {
          "internalType": "uint256",
          "name": "",
          "type": "uint256"
        }
      ],
      "stateMutability": "view",
      "type": "function",
      "constant": true
    },
    {
      "inputs": [
        {
          "internalType": "address",
          "name": "account",
          "type": "address"
        }
      ],
      "name": "hasPaid",
      "outputs": [
        {
          "internalType": "bool",
          "name": "",
          "type": "bool"
        }
      ],
      "stateMutability": "view",
      "type": "function",
      "constant": true
    }
  ],
  "bytecode": "0x608060405234801561001057600080fd5b50336000806101000a81548173ffffffffffffffffffffffffffffffffffffffff021916908373ffffffffffffffffffffffffffffffffffffffff160217905550671bc16d674ec800006001819055506107b58061006f6000396000f3fe6080604052600436106100705760003560e01c8063c71daccb1161004e578063c71daccb14610108578063c8a6cbbc14610133578063d8d7970014610170578063fbf47a9a1461017a57610070565b806327e235e3146100755780638da5cb5b146100b25780638fff20f3146100dd575b600080fd5b34801561008157600080fd5b5061009c600480360381019061009791906104fd565b6101b7565b6040516100a99190610543565b60405180910390f35b3480156100be57600080fd5b506100c76101cf565b6040516100d4919061056d565b60405180910390f35b3480156100e957600080fd5b506100f26101f3565b6040516100ff9190610543565b60405180910390f35b34801561011457600080fd5b5061011d6101f9565b60405161012a9190610543565b60405180910390f35b34801561013f57600080fd5b5061015a600480360381019061015591906104fd565b610290565b60405161016791906105a3565b60405180910390f35b6101786102b0565b005b34801561018657600080fd5b506101a1600480360381019061019c91906104fd565b610444565b6040516101ae91906105a3565b60405180910390f35b60026020528060005260406000206000915090505481565b60008054906101000a900473ffffffffffffffffffffffffffffffffffffffff1681565b60015481565b60008060009054906101000a900473ffffffffffffffffffffffffffffffffffffffff1673ffffffffffffffffffffffffffffffffffffffff163373ffffffffffffffffffffffffffffffffffffffff161461028a576040517f08c379a000000000000000000000000000000000000000000000000000000000815260040161028190610641565b60405180910390fd5b47905090565b60036020528060005260406000206000915054906101000a900460ff1681565b60015434146102f4576040517f08c379a00000000000000000000000000000000000000000000000000000000081526004016102eb906106d3565b60405180910390fd5b60008054906101000a900473ffffffffffffffffffffffffffffffffffffffff1673ffffffffffffffffffffffffffffffffffffffff166108fc349081150290604051600060405180830381858888f1935050505015801561035a573d6000803e3d6000fd5b5034600260003373ffffffffffffffffffffffffffffffffffffffff1673ffffffffffffffffffffffffffffffffffffffff16815260200190815260200160002060008282546103aa9190610722565b925050819055506001600360003373ffffffffffffffffffffffffffffffffffffffff1673ffffffffffffffffffffffffffffffffffffffff16815260200190815260200160002060006101000a81548160ff0219169083151502179055507f71c66459b89364f3bf3c906b1a1d8652cc2920224be995f47e1bd17fd1428222333460405161043a929190610756565b60405180910390a1565b6000600360008373ffffffffffffffffffffffffffffffffffffffff1673ffffffffffffffffffffffffffffffffffffffff16815260200190815260200160002060009054906101000a900460ff169050919050565b600080fd5b600073ffffffffffffffffffffffffffffffffffffffff82169050919050565b60006104ca8261049f565b9050919050565b6104da816104bf565b81146104e557600080fd5b50565b6000813590506104f7816104d1565b92915050565b6000602082840312156105135761051261049a565b5b6000610521848285016104e8565b91505092915050565b6000819050919050565b61053d8161052a565b82525050565b60006020820190506105586000830184610534565b92915050565b610567816104bf565b82525050565b6000602082019050610582600083018461055e565b92915050565b60008115159050919050565b61059d81610588565b82525050565b60006020820190506105b86000830184610594565b92915050565b600082825260208201905092915050565b7f4f6e6c7920746865206f776e65722063616e20636865636b207468652062616c60008201527f616e636500000000000000000000000000000000000000000000000000000000602082015250565b600061062b6024836105be565b9150610636826105cf565b604082019050919050565b6000602082019050818103600083015261065a8161061e565b9050919050565b7f5061796d656e7420616d6f756e74206d7573742062652065786163746c79203260008201527f2065746865720000000000000000000000000000000000000000000000000000602082015250565b60006106bd6026836105be565b91506106c882610661565b604082019050919050565b600060208201905081810360008301526106ec816106b0565b9050919050565b7f4e487b7100000000000000000000000000000000000000000000000000000000600052601160045260246000fd5b600061072d8261052a565b91506107388361052a565b92508282019050808211156107505761074f6106f3565b5b92915050565b600060408201905061076b600083018561055e565b6107786020830184610534565b939250505056fea2646970667358221220c429ab3efd4e6b1fd5f736407028ac9c55dc1a13f9abc891d1fdc2d4fd34accb64736f6c63430008120033",
  "immutableReferences": {},
  "source": "// SPDX-License-Identifier: GPL-3.0\r\npragma solidity ^0.8.13;\r\n\r\ncontract PaymentContract {\r\n    address public owner;\r\n    uint256 public regFee;\r\n    mapping(address => uint256) public balances;\r\n    mapping(address => bool) public paymentRecords;\r\n\r\n    event LogPaymentReceived(address from, uint256 amount);\r\n\r\n    constructor() {\r\n        owner = msg.sender;\r\n        regFee = 2 ether;\r\n    }\r\n\r\n    // Funcin para que cualquier cuenta externa realice un pago\r\n    function makePayment() external payable {\r\n        require(msg.value == regFee, \"Payment amount must be exactly 2 ether\");\r\n        payable(owner).transfer(msg.value); // Transferir el ether al propietario\r\n        balances[msg.sender] += msg.value;\r\n        paymentRecords[msg.sender] = true; // Registrar que esta cuenta realiz un pago\r\n        emit LogPaymentReceived(msg.sender, msg.value);\r\n    }\r\n\r\n    // Funcin para que el propietario del contrato consulte su saldo\r\n    function checkBalance() external view returns (uint256) {\r\n        require(msg.sender == owner, \"Only the owner can check the balance\");\r\n        return address(this).balance;\r\n    }\r\n\r\n    // Funcin para que el propietario consulte si una cuenta ha realizado un pago\r\n    function hasPaid(address account) external view returns (bool) {\r\n        return paymentRecords[account];\r\n    }\r\n}",
  "sourcePath": "E:\\Desarrollo\\Node\\StorageSyncVault\\Solidity\\PaymentContract\\contracts\\PaymentContract.sol",
  "compiler": {
    "name": "solc",
    "version": "0.8.18+commit.87f61d96.Emscripten.clang"
  },
  "schemaVersion": "3.4.16",
  "updatedAt": "2023-12-09T01:17:12.250Z",
  "networkType": "ethereum",
  "devdoc": {
    "kind": "dev",
    "methods": {},
    "version": 1
  },
  "userdoc": {
    "kind": "user",
    "methods": {},
    "version": 1
  }
}